:10000000EC770010B53500002136000021360000E5
:1000100021360000213600002136000000000000DB
:100020000000000000000000000000002136000079
:100030002136000000000000CD410000614B0000AF
:100040002136000021360000213600002136000054
:100050002136000021360000915A000021360000B0
:100060002136000021360000213600002136000034
:100070002136000021360000213600002136000024
:100080002136000021360000213600002136000014
:100090002136000021360000213600002136000004
:1000A0002136000001170000213600002136000033
:1000B00021360000213600002136000021360000E4
:1000C00021360000213600002136000080B586B0C0
:1000D00000AF786039604FF00003BB604FF0000361
:1000E0003B617A684FF48043C4F204039A420ED015
:1000F0007A684FF40043C4F204039A4207D040F6F2
:10010000C470C0F201004FF04F0103F08DFA7A681D
:100110004FF48043C4F204039A4206D14FF40050D6
:1001200001F0E0FB03463B6105E04FF4804001F045
:10013000D9FB03463B613A693B68B2FBF3F3BB6012
:100140004FF01803FB7535E0FA7DBB68B3FBF2F1A5
:1001500002FB01F29B1A002B28D1FB7DBA68B2FB8F
:10016000F3F303F1FF33FB60FB7D03F1FF33FB751A
:10017000FA7D4AF6AB23CAF6AA23A3FB02134FEA81
:100180005303DBB203F1FF337B75FA7D4AF6AB23F1
:10019000CAF6AA23A3FB02134FEA5303DBB2FA7D8C
:1001A000D31ADBB203F1FF33BB7506E0FB7DA3F18D
:1001B0000203FB75FB7D002BC6D17B684FF001026B
:1001C0001A607B7D4FEA0352BB7D4FEA0343134322
:1001D0001A46FB68134343F440427B685A617B68CC
:1001E0004FF000021A6007F11807BD4680BD00BF3E
:1001F00080B584B000AF786039607A684FF480438E
:10020000C4F204039A420ED07A684FF40043C4F259
:1002100004039A4207D040F6C470C0F201004FF0C8
:10022000880103F001FA7A684FF48043C4F20403B2
:100230009A420CD14FF400504FF0010101F08CFBB9
:100240004FF400504FF0000101F0BCFA0BE04FF406
:1002500080404FF0010101F07FFB4FF480404FF0F0
:10026000000101F0AFFA7B684FF001021A607B6871
:100270004FF000021A617B684FF000029A607B68C1
:100280004FF00E025A607B68DB68BB607B684FF002
:1002900000021A604FF44043C4F203034FF001021E
:1002A0001A604FF00003FB810CE04FF40043C4F2EE
:1002B0000303FA894FF0000143F82210FB8903F190
:1002C0000103FB81FA8940F2FF139A42EDD94FF402
:1002D0004043C4F203034FF000025A604FF440431E
:1002E000C4F203034FF000029A604FF44043C4F29B
:1002F00003034FF00002DA604FF44043C4F20303FB
:100300004FF000021A614FF44043C4F203034FF070
:1003100000025A614FF44043C4F203034FF000025D
:100320001A6078683968FFF7D1FE07F11007BD46FB
:1003300080BD00BF80B584B000AF786039607A6856
:100340004FF48043C4F204039A420ED07A684FF40B
:100350000043C4F204039A4207D040F6C470C0F2CE
:10036000010040F2AF5103F05FF97B68DB6903F0F5
:100370000103DBB2002B65D07B681B6A4FEAD373A5
:10038000DAB23B685A737B681B6A03F080434FEA1A
:100390009373DAB23B689A737B681B6A03F4702329
:1003A0004FEA1343DAB23B681A737B685B6A1A46FA
:1003B0003B681A603B689B7B002B40D17B689B6A43
:1003C000FB60FB68DAB23B681A71FB6803F47F4399
:1003D0004FEA1323DAB23B685A71FB6803F47F03D8
:1003E0004FEA1343DAB23B689A71FB684FEA136332
:1003F000DAB23B68DA717B68DB6AFB60FB68DAB211
:100400003B681A72FB6803F47F434FEA1323DAB2A6
:100410003B685A72FB6803F47F034FEA1343DAB276
:100420003B689A72FB684FEA1363DAB23B68DA7290
:100430007B684FF004025A604FF0010304E04FF074
:10044000010301E04FF00003184607F11007BD4615
:1004500080BD00BF80B582B000AF786013460A4609
:10046000FA70BB707A684FF48043C4F204039A4276
:100470000ED07A684FF40043C4F204039A4207D0C6
:1004800040F6C470C0F2010040F28D6103F0CCF878
:10049000FB78002B28D0FB78012B25D0FB78022B92
:1004A00022D0FB78032B1FD0FB78042B1CD0FB78C9
:1004B000052B19D0FB78062B16D0FB78072B13D011
:1004C000FB78082B10D0FB78092B0DD0FB780A2B7A
:1004D0000AD0FB780B2B07D040F6C470C0F20100A5
:1004E00040F28E6103F0A0F8BB78002B0AD0BB78F5
:1004F000012B07D040F6C470C0F2010040F28F61BA
:1005000003F092F8BB78012B24D1FB780B2B15D18B
:100510004FF44043C4F203034FF001021A604FF45A
:100520004043C4F203034FF001021A624FF4404308
:10053000C4F203034FF004021A6031E07B681B69C8
:100540001A46FB784FF0010101FA03F31A437B6866
:100550001A6125E0FB780B2B15D14FF44043C4F210
:1005600003034FF001021A604FF44043C4F2030347
:100570004FF001021A624FF44043C4F203034FF0FC
:1005800000021A600CE07B681B691A46FB784FF08A
:10059000010101FA03F36FEA03031A407B681A6151
:1005A00007F10807BD4680BD80B582B000AF786016
:1005B0000B46FB707A684FF44043C4F203039A423F
:1005C00007D040F6C470C0F2010040F2B46103F0FD
:1005D0002BF8FB78002B10D0FB78012B0DD0FB788B
:1005E000022B0AD0FB78032B07D040F6C470C0F270
:1005F000010040F2B56103F017F8FB78032B1FD818
:1006000001A252F823F000BF1906000023060000E3
:100610002D060000370600007B684FF000021A60CC
:100620000EE07B684FF001021A6009E07B684FF032
:1006300002021A6004E07B684FF004021A6000BFF7
:1006400007F10807BD4680BD80B582B000AF786075
:1006500013460A46FA70BB707A684FF48043C4F2BE
:1006600004039A420ED07A684FF40043C4F20403A4
:100670009A4207D040F6C470C0F2010040F2DD613A
:1006800002F0D2FFFB78002B1CD0FB78012B19D095
:10069000FB78022B16D0FB78032B13D0FB78042BAE
:1006A00010D0FB78052B0DD0FB78062B0AD0FB78F9
:1006B000072B07D040F6C470C0F2010040F2DE61A3
:1006C00002F0B2FFBB78002B0AD0BB78012B07D019
:1006D00040F6C470C0F2010040F2DF6102F0A4FFF6
:1006E000FB78072B00F2A88001A252F823F000BF8C
:1006F000110700001B0700003D07000077070000FE
:10070000B1070000D3070000F5070000170800003C
:100710007B684FF000021A608EE0BB78012B06D197
:100720007B681B6843F001027B681A6084E07B6889
:100730001B6823F001027B681A607DE07B681B6800
:1007400043F001027B681A60BB78012B06D17B68FD
:100750001B6843F002027B681A6005E07B681B6837
:1007600023F002027B681A607B681B6823F0010299
:100770007B681A6060E07B681B6843F001027B685D
:100780001A60BB78012B06D17B681B6843F004021A
:100790007B681A6005E07B681B6823F004027B68B5
:1007A0001A607B681B6823F001027B681A6043E0D3
:1007B000BB78012B06D17B681B6843F008027B687D
:1007C0001A6039E07B681B6823F008027B681A60B6
:1007D00032E0BB78012B06D17B681B6843F0100226
:1007E0007B681A6028E07B681B6823F010027B6836
:1007F0001A6021E0BB78012B06D17B681B6843F0AF
:1008000020027B681A6017E07B681B6823F02002D7
:100810007B681A6010E0BB78012B06D17B681B68EF
:1008200043F080027B681A6005E07B681B6823F058
:1008300080027B681A6000BF07F10807BD4680BDD3
:1008400080B582B000AF78607A684FF48043C4F21C
:1008500004039A420ED07A684FF40043C4F20403B2
:100860009A4207D040F6C470C0F2010040F23571E0
:1008700002F0DAFE7B68DB68184607F10807BD4620
:1008800080BD00BF80B400AF40F64012C1F200024C
:1008900040F60C23C1F200031A6040F64013C1F287
:1008A000000303F1C80240F60C23C1F200035A60B2
:1008B00040F60823C1F2000340F64012C1F20002E4
:1008C0001A6040F60823C1F200031B684FF00002D3
:1008D0001A6040F60823C1F200031B684FF00002C3
:1008E0005A6040F60823C1F200031B684FF0000273
:1008F0009A60BD4680BC704780B500AF03F0EAFC4B
:1009000003461A4640F61423C1F200031A7040F65B
:100910001423C1F200031B78FF2B02D14FF0000318
:1009200008E040F63023C1F200034FF000021A80C5
:100930004FF00103184680BD80B582B000AF7860EB
:1009400040F61423C1F200031B78184603F014FD8F
:100950000346002B40F013817B681B6823F07F4324
:100960004FEA1323B3F57E4F1AD0B3F57E4F0AD862
:1009700041F6FD02934200F0BA804FF611529342C5
:1009800000F08180F2E04FF60362934251D04FF6BF
:100990000662934262D04FF6016293421DD0E5E0B9
:1009A0007B689B794FEA03239AB27B685B79134398
:1009B0009BB29AB240F61823C1F200031A8040F6A7
:1009C0003023C1F200031B8843F001039AB240F6C2
:1009D0003023C1F200031A80C8E07B689B794FEA9C
:1009E00003239AB27B685B7913439BB29AB240F6B9
:1009F0001823C1F200035A807B681B7A4FEA032355
:100A00009AB27B68DB7913439BB29AB240F6182303
:100A1000C1F200039A8040F63023C1F200031B8824
:100A200043F006039AB240F63023C1F200031A8065
:100A30009CE07B685A7940F61823C1F200039A7152
:100A400040F63023C1F200031B8843F008039AB23A
:100A500040F63023C1F200031A8087E07B685A79A0
:100A600040F61823C1F20003DA7140F63023C1F2D8
:100A700000031B8843F010039AB240F63023C1F202
:100A800000031A8072E07B689B794FEA03239AB2D5
:100A90007B685B7913439BB29AB240F62023C1F284
:100AA00000031A807B681B7A4FEA03239AB27B68A3
:100AB000DB7913439BB29AB240F62023C1F20003C4
:100AC0005A807B68DB7ADAB240F62023C1F2000359
:100AD0001A7140F63223C1F200031B8843F007036A
:100AE0009AB240F63223C1F200031A803EE07B68DE
:100AF0001A7940F62823C1F200031A707B685A79EC
:100B000040F62823C1F200035A707B689A7940F6B8
:100B10002823C1F200039A707B68DA7940F6282313
:100B2000C1F20003DA707B681A7A40F62823C1F21A
:100B300000031A717B685A7A40F62823C1F2000339
:100B40005A717B689A7A40F62823C1F200039A71A1
:100B500040F63423C1F200031B8843F05F039AB2CE
:100B600040F63423C1F200031A8000BF40F614237C
:100B7000C1F200031B78184603F0D8FC00E000BF68
:100B800007F10807BD4680BD80B586B000AF78602C
:100B90000B467B804FF00003FB8240F61423C1F22A
:100BA00000031B78184603F0E7FB07F1080318461B
:100BB00004F00AFD0346002B28D07A88FB8AD31A5A
:100BC0000C2B23D94FF0000041F23001C0F201019B
:100BD00000F0DEF9FB8A7A68D3184FF006021A702B
:100BE000FB8A03F10103FB82FB8A7A68D21807F1C2
:100BF000080311461A464FF00C03084611461A46E0
:100C000005F0DCF9FB8A03F10C03FB8240F630238C
:100C1000C1F200031B8803F01F03002B31D07A8838
:100C2000FB8AD31A082B2CD94FF0000041F2440163
:100C3000C0F2010100F0ACF9FB8A7A68D3184FF0DA
:100C400003021A70FB8A03F10103FB82FB8A7A68B4
:100C5000D21840F61823C1F2000311461A464FF08D
:100C60000803084611461A4605F0A8F9FB8A03F165
:100C70000803FB8240F63023C1F200034FF000026C
:100C80001A8040F63223C1F200031B8803F00703E9
:100C9000002B31D07A88FB8AD31A052B2CD94FF040
:100CA000000041F25801C0F2010100F071F9FB8A25
:100CB0007A68D3184FF002021A70FB8A03F101031D
:100CC000FB82FB8A7A68D21840F62023C1F2000327
:100CD00011461A464FF00503084611461A4605F01C
:100CE0006DF9FB8A03F10503FB8240F63023C1F264
:100CF00000034FF000021A8040F63423C1F20003D3
:100D00001B8803F07F03002B31D07A88FB8AD31A2B
:100D1000072B2CD94FF0000041F27001C0F2010105
:100D200000F036F9FB8A7A68D3184FF008021A707F
:100D3000FB8A03F10103FB82FB8A7A68D21840F632
:100D40002823C1F2000311461A464FF00703084654
:100D500011461A4605F032F9FB8A03F10703FB82BC
:100D600040F63023C1F200034FF000021A8040F633
:100D70001423C1F200031B78184603F0D7FBFB8A4B
:100D8000184607F11807BD4680BD00BF80B500AF0B
:100D900040F63923C1F200031B78DBB2012B1AD1D4
:100DA00040F63463C1F200031B78012B01D102F03D
:100DB000E7F940F63A23C1F200031B78DBB2012BBE
:100DC00001D102F02BF840F63923C1F200034FF0B5
:100DD00000021A700DE040F63923C1F200031B78BF
:100DE000DBB203F1FF33DAB240F63923C1F200037C
:100DF0001A7080BD80B500AF4EF21403CEF200032E
:100E000044F67F72C0F212021A604EF21003CEF264
:100E100000034FF007021A604EF61C53CEF2000397
:100E20004EF61C52CEF20002126842F07F421A6067
:100E30004EF62053CEF200034EF62052CEF20002C0
:100E400012686FEA02426FEA12421A6001F0B4FDC2
:100E500002F0E4FDFFF716FD40F63923C1F200036E
:100E60001B78DBB203F10103DAB240F63923C1F299
:100E700000031A7044F6F170C0F200004FF0000158
:100E80004FF4CA52034B02F0CDF8024803F08EF93A
:100E900080BD00BFE80D001080B500AF40F6F853EC
:100EA000C1F2000340F68042C1F200021A6040F62F
:100EB000F853C1F200031A6840F6F453C1F200037C
:100EC0001A6040F6F853C1F200031B684FF00102AC
:100ED0005A7140F6F853C1F200031B68184601F03E
:100EE00041FEFFF753FF80BD80B588B000AF4FF0E3
:100EF0000303BB714FF000033B724FF00003FB7123
:100F00004FF01C037B714FF004033B7107F10403A6
:100F1000184603F019F84FF01D037B7107F1040325
:100F2000184603F011F807F11003184601F058F9BC
:100F30004FF4E1333B6107F110034FF44040C4F23A
:100F40000900194600F098FF07F10C03184601F05C
:100F5000A5FC07F10C034FF44040C4F20900194608
:100F600001F0DAFB4FF44040C4F209004FF00101F8
:100F700001F0AEFC03F0AEF903461A4640F63B23FF
:100F8000C1F200031A7007F12007BD4680BD00BF03
:100F900080B592B002AF03463960FB7140F63B2347
:100FA000C1F200031B78184603F0E6F907F12003AD
:100FB0004FF48040C4F20200194603F0E3FCBA6A21
:100FC0007B6A386A07F10C010090084641F28C01F7
:100FD000C0F2010105F04CFD07F10C03184605F0C5
:100FE0006FFD034607F10C024FF44040C4F20900C4
:100FF00011461A464FF0010301F084F9386805F0F4
:101000005FFD03464FF44040C4F2090039681A46B8
:101010004FF0010301F076F94FF44040C4F20900AB
:1010200041F2A001C0F201014FF003024FF00103B1
:1010300001F068F940F63B23C1F200031B78184623
:1010400003F074FA07F14007BD4680BD90B587B044
:1010500000AF0346FB71F97940F63C22C1F2000271
:101060000B464FEA43035B184FEAC303D31803F15F
:1010700004031B68FB60FB68002B00F04B8140F60B
:101080003923C1F200031B78DBB203F10103DAB2AA
:1010900040F63923C1F200031A7040F66C23C1F206
:1010A00000031B68002B12D1FA7913464FEA430361
:1010B0009B184FEAC3031A4640F63C23C1F20003D3
:1010C000D21840F66C23C1F200031A601FE140F60B
:1010D0006C23C1F200031B687B61FB683B6112E17A
:1010E0003A697B695B68D31A3B613B69002B80F2EC
:1010F000D0807B695B69002B40D07B695969FA79A4
:1011000013464FEA43039B184FEAC3031A4640F6BF
:101110003C23C1F20003D3180B61F9797B6958694C
:1011200040F63C22C1F200020B464FEA43035B1833
:101130004FEAC303D31803F114031860F97940F69A
:101140003C22C1F200020B464FEA43035B184FEA10
:10115000C303D31803F110037A691A60FA791346AE
:101160004FEA43039B184FEAC3031A4640F63C2359
:10117000C1F20003D2187B695A6138E0F97940F670
:101180006C23C1F20003186840F63C22C1F2000251
:101190000B464FEA43035B184FEAC303D31803F12E
:1011A0001003186040F66C23C1F200031968FA7945
:1011B00013464FEA43039B184FEAC3031A4640F60F
:1011C0003C23C1F20003D3184B61FA7913464FEA6E
:1011D00043039B184FEAC3031A4640F63C23C1F26F
:1011E0000003D21840F66C23C1F200031A60F979AB
:1011F000F87940F63C22C1F2000203464FEA43036D
:101200001B184FEAC303D31803F110031B685A6875
:101210003B69D01840F63C22C1F200020B464FEA6F
:1012200043035B184FEAC303D31803F104031860A8
:10123000F97940F63C22C1F200020B464FEA430323
:101240005B184FEAC303D31803F110031868F97948
:1012500040F63C22C1F200020B464FEA43035B1802
:101260004FEAC303D31803F110031B685C68F979D4
:1012700040F63C22C1F200020B464FEA43035B18E2
:101280004FEAC303D31803F104031B68E31A436056
:101290003DE03B69002B33DB7B691B69002B2FD1C1
:1012A000F97940F63C22C1F200020B464FEA4303B3
:1012B0005B184FEAC303D31803F114037A691A6069
:1012C000FA7913464FEA43039B184FEAC3031A46C1
:1012D00040F63C23C1F20003D2187B691A61F97908
:1012E000386940F63C22C1F200020B464FEA430344
:1012F0005B184FEAC303D31803F10403186006E038
:101300007B691B697B617B69002B7FF4E9AEFFF78A
:101310003DFD00E000BF07F11C07BD4690BD00BFCA
:1013200080B584B000AF0346FB71FA7913464FEAEB
:1013300043039B184FEAC3031A4640F63C23C1F20D
:101340000003D318FB6040F63923C1F200031B7879
:10135000DBB203F10103DAB240F63923C1F2000334
:101360001A70FB685B69002B0BD1FB681B69002BB3
:1013700007D140F66C23C1F200034FF000021A605F
:1013800049E0FB685B69002B1CD1FB681A6940F6D9
:101390006C23C1F200031A6040F66C23C1F2000313
:1013A0001B684FF000025A61FB681B69FA681269FA
:1013B0005168FA6852688A185A60FB684FF0000258
:1013C0001A6128E0FB681B69002B09D1FB685B6987
:1013D0004FF000021A61FB684FF000025A611AE0F8
:1013E000FB685B69FA6812691A61FB681B69FA6835
:1013F00052695A61FB681B69FA6812695168FA6898
:1014000052688A185A60FB684FF000021A61FB6844
:101410004FF000025A61FFF7B9FC07F11007BD4613
:1014200080BD00BF80B582B000AF40F66C23C1F232
:1014300000031B687B602BE07B685B78002B0CD182
:101440007B681B781846FFF76BFF7B684FF0010243
:101450009A707B68DB68984714E07B685B78012BA7
:1014600010D17B681B781846FFF75AFF7B689A6893
:101470007B685A607B681B781846FFF7E7FD7B683E
:10148000DB68984740F66C23C1F200031B687B6061
:101490007B68002B03D07B685B68002BCCD007F106
:1014A0000807BD4680BD00BF80B500AF40F63923B8
:1014B000C1F200031B78DBB2012B0ED940F6346376
:1014C000C1F200034FF001021A7040F63663C1F218
:1014D00000034FF001021A7001E0FFF7A3FF80BD87
:1014E00080B483B000AF0346FB714FF46143CEF28A
:1014F000000397F907204FEA5212F97901F01F0112
:101500004FF0010000FA01F143F8221007F10C0737
:10151000BD4680BC704700BF80B586B000AF786024
:101520004FF0000041F2A401C0F20101FFF730FDCD
:1015300040F67423C1F200034FF0000283F800224A
:1015400040F67423C1F200034FF00002C3F80422F6
:1015500040F67423C1F200034FF00002C3F80822E2
:10156000FFF7CAF900F014F807F10803184600F075
:101570005BF80346002B05D14FF0010002F04AF959
:1015800000BFF1E707F108031846FFF7D5F9EBE7CD
:1015900080B582B000AF4FF00203BB704FF0000384
:1015A0003B714FF00003FB704FF000033B704FF0B6
:1015B00004037B703B46184602F0C6FC4FF005035F
:1015C0007B703B46184602F0BFFC4FF40040C4F26B
:1015D00004004EF64801C0F20101FEF709FE4FF487
:1015E0000040C4F204004FF000014FF00102FFF789
:1015F0002BF84FF40040C4F204004FF000014FF00C
:101600000102FEF727FF4FF44040C4F203004FF001
:101610000201FEF7C9FF4FF01900FFF761FF07F164
:101620000807BD4680BD00BF90B583B000AF7860AD
:101630004FF40040C4F204004FF000014FF00002EC
:10164000FEF708FF40F67423C1F20003D3F8082226
:1016500040F67423C1F20003D3F804329A4214D145
:1016600040F67423C1F2000393F80032002B0CD132
:101670004FF40040C4F204004FF000014FF00102AB
:10168000FEF7E8FE4FF0000335E040F67423C1F2A8
:101690000003D3F808127A6840F67423C1F20003FD
:1016A0004FEA01115B1814460FCB84E80F0040F697
:1016B0007423C1F20003D3F8083203F1010303F0ED
:1016C0001F0240F67423C1F20003C3F8082240F65B
:1016D0007423C1F200034FF0000283F800224FF49C
:1016E0000040C4F204004FF000014FF00102FEF789
:1016F000B1FE4FF00103184607F10C07BD4690BD3F
:1017000090B587B000AF4FF40040C4F20400FFF77B
:1017100097F803467B617B6903F00103DBB2002B82
:101720004BD007F104034FF40040C4F20400194603
:10173000FEF700FE40F67423C1F2000393F8003276
:10174000002B39D140F67423C1F20003D3F80422F0
:1017500040F67423C1F200034FEA02129B181C46A4
:1017600007F104030FCB84E80F0040F67423C1F2A5
:101770000003D3F8043203F1010303F01F0240F623
:101780007423C1F20003C3F8042240F67423C1F2AB
:101790000003D3F8042240F67423C1F20003D3F807
:1017A00008329A4209D140F67423C1F200034FF087
:1017B000010283F8002200E000BF07F11C07BD46CC
:1017C00090BD00BF80B485B000AF786039607B68A1
:1017D0001F2B03D97B68A3F1200300E07B68FB602B
:1017E0007B681F2B27D84FF44043C4F20F034FF4FC
:1017F0004042C4F20F02D2F8A8211146FA684FF015
:10180000030000FA02F26FEA02020A40C3F8A821BC
:101810004FF44043C4F20F034FF44042C4F20F02AE
:10182000D2F8A8211146FA68386800FA02F20A4391
:10183000C3F8A82126E04FF44043C4F20F034FF44D
:101840004042C4F20F02D2F8AC211146FA684FF0C0
:10185000030000FA02F26FEA02020A40C3F8AC2168
:101860004FF44043C4F20F034FF44042C4F20F025E
:10187000D2F8AC211146FA68386800FA02F20A433D
:10188000C3F8AC2107F11407BD4680BC704700BF08
:1018900080B485B000AF78607B681F2B09D87B6867
:1018A000FB604FF44043C4F20F03D3F8A831BB6090
:1018B0000AE07B68A3F12003FB604FF44043C4F2CD
:1018C0000F03D3F8AC31BB60FB68BA6822FA03F3AC
:1018D00003F00303BB60BB68184607F11407BD465D
:1018E00080BC704780B584B000AF786040F20003E0
:1018F000C1F200031B68BB607868FFF7C9FF0346AD
:10190000FB60FB68032B1BD801A252F823F000BF39
:1019100021190000291900003119000039190000AF
:101920004FF00403FB600BE04FF00103FB6007E0A6
:101930004FF00203FB6003E04FF00803FB6000BFC1
:10194000BA68FB68B2FBF3F3BB60BB68184607F1EB
:101950001007BD4680BD00BF80B483B000AF786083
:101960000B46FB70FB78012B14D14FF44042C4F2BC
:101970000F024FF44043C4F20F03D3F8C4301946AA
:1019800078684FF2DE73CEF6EF7303400B43C2F874
:10199000C43018E0FB78002B15D14FF44042C4F25C
:1019A0000F024FF44043C4F20F03D3F8C43019467A
:1019B0007B686FEA030319404FF2DE73CEF6EF73D4
:1019C0000B40C2F8C43007F10C07BD4680BC70471D
:1019D00080B400AF4FF44043C4F20F034FF0200235
:1019E000C3F8A0214FF44043C4F20F03D3F8A03151
:1019F00003F02003002B0AD000BF4FF44043C4F291
:101A00000F03D3F8A03103F04003002BF5D04FF4BF
:101A10004043C4F20F034FF00302C3F804214FF414
:101A20004043C4F20F034FF00002C3F8A8214FF463
:101A30004043C4F20F034FF00002C3F8AC214FF44F
:101A40004043C4F20F034FF00102C3F80C214FF4DE
:101A50004043C4F20F034FF01302C3F884204FF445
:101A60004043C4F20F034FF0AA02C3F88C204FF496
:101A70004043C4F20F034FF05502C3F88C204FF4DB
:101A80004043C4F20F034FF00102C3F880204FF42B
:101A90004043C4F20F034FF0AA02C3F88C204FF466
:101AA0004043C4F20F034FF05502C3F88C2000BF2F
:101AB0004FF44043C4F20F03D3F8883003F080633F
:101AC000002BF5D04FF44043C4F20F034FF0030254
:101AD000C3F880204FF44043C4F20F034FF0AA0232
:101AE000C3F88C204FF44043C4F20F034FF055026B
:101AF000C3F88C2000BF4FF44043C4F20F03D3F867
:101B0000883003F04073002BF5D04FF44043C4F20B
:101B10000F034FF02302C3F8A4204FF44043C4F254
:101B20000F034FF0AA02C3F8AC204FF44043C4F2B5
:101B30000F034FF05502C3F8AC204FF44043C4F2FA
:101B40000F034FF00102C3F8A0204FF44043C4F24A
:101B50000F034FF0AA02C3F8AC204FF44043C4F285
:101B60000F034FF05502C3F8AC2000BF4FF44043C1
:101B7000C4F20F03D3F8A83003F48063002BF5D030
:101B80004FF44043C4F20F034FF00302C3F8A02008
:101B90004FF44043C4F20F034FF0AA02C3F8AC2045
:101BA0004FF44043C4F20F034FF05502C3F8AC208A
:101BB00000BF4FF44043C4F20F03D3F8A83003F43E
:101BC0004073002BF5D04FF44043C4F20F0348F2AA
:101BD000DE72C0F22842C3F8C4204FF44043C4F27E
:101BE0000F034FF00002C3F8C8214FF44043C4F282
:101BF0000F0343F23A021A604FF46D43CEF2000332
:101C00004FF000029A60BD4680BC704780B58EB030
:101C100000AF786039604FF0000387F837304FF03D
:101C20000003FB604FF00003BB604FF000037B62DA
:101C30004FF001033B624FF00003FB614FF00003E4
:101C4000BB614FF000037B6148F2A063C0F2010367
:101C50003B617A684FF44043C4F200039A4206D1D4
:101C60004FF00600FFF73EFE03463B6328E07A682C
:101C70004FF00003C4F201039A4206D14FF008006E
:101C8000FFF730FE03463B631AE07A684FF40043E7
:101C9000C4F209039A4206D14FF03000FFF722FE4A
:101CA00003463B630CE07A684FF44043C4F20903F7
:101CB0009A4205D14FF03200FFF714FE03463B6312
:101CC0003B6B4FEA13133B634FF00103FB625CE095
:101CD0004FF00003BB624CE0FB6A3A6B02FB03F27D
:101CE000F96ABB6ACB18B2FBF3F3BB60BA683B6816
:101CF000B2FBF3F37B62BB683A68B3FBF2F239687C
:101D000001FB02F29A1A3B684FEA53039A4203D945
:101D10007B6A03F101037B627B6A022B25D97A6A15
:101D20004FF6FF739A4220D8BA687B6AB2FBF3F38E
:101D3000FB60FA683B689A4204D83A68FB68D31A99
:101D40007B6103E0FA683B68D31A7B617A693B697F
:101D50009A420AD2FB6A3B62BB6AFB617B6ABB6147
:101D60007B693B617B69002B07D0BB6A03F10103F0
:101D7000BB62BB6A0F2BAFD900E000BF7B69002BB1
:101D800007D0FB6A03F10103FB62FB6A0F2B9FD9AB
:101D900000E000BF3A6813464FEA43039A1848F23E
:101DA0001F53C5F2EB13A3FB02134FEA53123B6917
:101DB0009A4259D97A684FF00003C4F201039A425B
:101DC00025D17B681B7BDBB263F07F03DAB27B68D3
:101DD0001A73BB694FEA1323DAB27B681A71BB69C5
:101DE000DAB27B681A707B681B7BDBB203F07F037F
:101DF000DAB27B681A733B6A4FEA0313DAB2FB6903
:101E000003F00F031343DAB27B689A6228E07B6821
:101E10001B7BDBB263F07F03DAB27B681A73BB69AA
:101E20004FEA1323DAB27B681A71BB69DAB27B68B6
:101E30001A707B681B7BDBB203F07F03DAB27B682E
:101E40001A733B6ADBB24FEA0313DAB2FB69DBB207
:101E500003F00F03DBB21343DAB27B6883F8282068
:101E60004FF0010387F8373097F83730184607F1FD
:101E70003807BD4680BD00BF80B584B000AF786034
:101E800039607A684FF44043C4F200039A421CD090
:101E90007A684FF00003C4F201039A4215D07A68C1
:101EA0004FF40043C4F209039A420ED07A684FF40B
:101EB0004043C4F209039A4207D041F2B800C0F28D
:101EC00001004FF0BF0101F0AFFB3B685B79002BD5
:101ED00013D03B685B79012B0FD03B685B79022BF9
:101EE0000BD03B685B79032B07D041F2B800C0F2FE
:101EF00001004FF0C00101F097FB3B689B79002B7C
:101F00000BD03B689B79012B07D041F2B800C0F29F
:101F100001004FF0C10101F087FB3B681B79002BEA
:101F200017D03B681B79012B13D03B681B79022B20
:101F30000FD03B681B79032B0BD03B681B79042B1C
:101F400007D041F2B800C0F201004FF0C20101F029
:101F50006BFB7A684FF44043C4F200039A4205D108
:101F60004FF008004FF00101FFF7F6FC7A684FF0E0
:101F70000003C4F201039A4205D14FF010004FF064
:101F80000101FFF7E9FC7A684FF40043C4F209034A
:101F90009A4205D14FF080704FF00101FFF7DCFC51
:101FA0007A684FF44043C4F209039A4205D14FF0D6
:101FB00000704FF00101FFF7CFFC7A684FF000038B
:101FC000C4F201039A424ED17B684FF007021A72A5
:101FD0007B684FF000021A7203E07B681B78DBB26B
:101FE000FB607B681B7DDBB203F00103DBB2002BDF
:101FF000F3D17B684FF0800283F8302000BF7B680C
:102000001B7DDBB203F02003002BF8D07B684FF080
:10201000000283F830207B684FF000025A607B6832
:102020004FF000021A737B684FF000021A627B685F
:102030004FF000021A747B684FF0000283F84C20C6
:102040007B684FF0000283F854207B684FF0000259
:1020500083F850207B681B7EDBB2FB607B681B7DB6
:10206000DBB2FB6036E07B684FF007021A727B68D8
:102070004FF000021A7203E07B681B78DBB2FB6052
:102080007B681B7DDBB203F00103DBB2002BF3D1D5
:102090007B684FF0800283F8302000BF7B681B7D97
:1020A000DBB203F02003002BF8D07B684FF0000276
:1020B00083F830207B684FF000025A607B684FF055
:1020C00000021A737B684FF000021A627B681B7D66
:1020D000DBB2FB607A684FF44043C4F209039A42D2
:1020E00004D17B684FF0000283F824203B681B6812
:1020F00078681946FFF78AFD7A684FF00003C4F24A
:1021000001039A4206D17B681B7BDBB203F0C0035C
:10211000FB6005E07B681B7BDBB203F0C003FB6068
:102120003B685B79012B04D0022B07D0002B0FD02A
:1021300009E0FB6843F00103FB600AE0FB6843F041
:102140000203FB6005E0FB6843F00303FB6000E073
:1021500000BF3B681B79002B24D0FB6843F00803C9
:10216000FB603B681B7903F1FF33032B19D801A2F5
:1021700052F823F0A3210000852100008F210000E8
:1021800099210000FB6843F01003FB600AE0FB6844
:1021900043F02003FB6005E0FB6843F03003FB6085
:1021A00000E000BF3B689B79012B04D1FB6843F042
:1021B0000403FB6000E000BF7A684FF00003C4F244
:1021C00001039A4204D1FB68DAB27B681A7303E018
:1021D000FB68DAB27B681A7307F11007BD4680BD51
:1021E00080B483B000AF78607B684FF416521A60F9
:1021F0007B684FF003025A717B684FF000021A713E
:102200007B684FF000029A7107F10C07BD4680BC55
:10221000704700BF80B582B000AF78600B46FB709E
:102220007A684FF44043C4F200039A421CD07A68A3
:102230004FF00003C4F201039A4215D07A684FF4BC
:102240000043C4F209039A420ED07A684FF4404327
:10225000C4F209039A4207D041F2B800C0F201006B
:1022600040F2CF1101F0E0F97A684FF00003C4F2B8
:1022700001039A4203D17B68FA781A7002E07B6806
:10228000FA781A7007F10807BD4680BD80B582B0A4
:1022900000AF78607A684FF44043C4F200039A427A
:1022A0001CD07A684FF00003C4F201039A4215D0A3
:1022B0007A684FF40043C4F209039A420ED07A6858
:1022C0004FF44043C4F209039A4207D041F2B800E8
:1022D000C0F2010040F2E71101F0A6F97A684FF070
:1022E0000003C4F201039A4203D17B681B78DBB27E
:1022F00002E07B681B78DBB2184607F10807BD4691
:1023000080BD00BF80B58AB000AFF860B9607A6068
:10231000FB70BB687B617B687B62FB78012B3ED1E5
:102320004FF000033B6236E04FF0FF33FB6106E005
:10233000FB69002B0BD0FB6903F1FF33FB61FB68EA
:102340001B7DDBB203F02003002BF1D000E000BFC7
:10235000FB69002B52D04FF01003BB6115E07B6985
:102360001B787A6902F101027A61F8681946FFF771
:1023700051FFBB6903F1FF33BB617B6A03F1FF339C
:102380007B623B6A03F101033B62BB69002B02D015
:102390007B6A002BE3D17B6A002BC5D131E04FF083
:1023A00000033B6226E0FB681B7DDBB203F02003E9
:1023B000002B25D04FF01003BB6115E07B691B7823
:1023C0007A6902F101027A61F8681946FFF722FF83
:1023D0007B6A03F1FF337B62BB6903F1FF33BB61AF
:1023E0003B6A03F101033B62BB69002B02D07B6AAD
:1023F000002BE3D17B6A002BD5D102E000BF00E0C7
:1024000000BF3B6A184607F12807BD4680BD00BFE4
:1024100080B588B000AFF860B9607A60FB70BB68C7
:102420003B617B68FB61FB78012B31D14FF00003EE
:10243000BB6129E04FF0FF337B6106E07B69002B35
:102440000BD07B6903F1FF337B61FB681B7DDBB243
:1024500003F00103002BF1D000E000BF7B69002BEB
:1024600038D0F868FFF712FF03461A463B691A7026
:102470003B6903F101033B61FB6903F1FF33FB613E
:10248000BB6903F10103BB61FB69002BD2D124E0DE
:102490004FF00003BB6119E0FB681B7DDBB203F06A
:1024A0000103002B18D0F868FFF7F0FE03461A4628
:1024B0003B691A703B6903F101033B61BB6903F19E
:1024C0000103BB61FB6903F1FF33FB61FB69002B77
:1024D000E2D102E000BF00E000BFBB69184607F18F
:1024E0002007BD4680BD00BF80B584B000AF7860D6
:1024F00013460A46FA70BB707A684FF44043C4F240
:1025000000039A421CD07A684FF00003C4F2010322
:102510009A4215D07A684FF40043C4F209039A42F4
:102520000ED07A684FF44043C4F209039A4207D0B0
:1025300041F2B800C0F201004FF4287101F074F8C4
:10254000BB78002B0AD0BB78012B07D041F2B80032
:10255000C0F2010040F2A12101F066F8FB78062BE1
:102560002CD801A252F823F0852500008D2500000B
:10257000952500009D250000A5250000AD25000043
:10258000B52500004FF00103FB6017E04FF0020398
:10259000FB6013E04FF00403FB600FE04FF0080313
:1025A000FB600BE04FF08003FB6007E04FF48073AB
:1025B000FB6003E04FF40073FB6000BF7A684FF0EC
:1025C0000003C4F201039A421DD1FB78002B31D0E5
:1025D000FB78012B2ED0FB78022B2BD0FB78052B20
:1025E00028D0FB78062B25D0FB78032B22D0FB7854
:1025F000042B1FD041F2B800C0F2010040F2BD210F
:1026000001F012F816E0FB78002B13D0FB78012BB9
:1026100010D0FB78022B0DD0FB78052B0AD0FB786D
:10262000062B07D041F2B800C0F2010040F2C121F0
:1026300000F0FAFFBB78012B16D17A684FF0000347
:10264000C4F201039A4207D17B685B681A46FB68B3
:102650001A437B685A6027E07B685B681A46FB6810
:102660001A437B685A601FE07A684FF00003C4F297
:1026700001039A420CD17B685B681A46FB686FEADB
:1026800003031A4040F28F3313407A6853600BE023
:102690007B685B681A46FB686FEA03031A4040F2E6
:1026A000073313407A68536007F11007BD4680BDB9
:1026B00080B582B000AF78607A684FF44043C4F2CE
:1026C00000039A421CD07A684FF00003C4F2010361
:1026D0009A4215D07A684FF40043C4F209039A4233
:1026E0000ED07A684FF44043C4F209039A4207D0EF
:1026F00041F2B800C0F2010040F2063100F094FF50
:102700007B689B681A4640F2CF331340184607F1A6
:102710000807BD4680BD00BF80B584B000AF7860BB
:1027200039604FF00003FB737A684FF44043C4F202
:1027300000039A421CD07A684FF00003C4F20103F0
:102740009A4215D07A684FF40043C4F209039A42C2
:102750000ED07A684FF44043C4F209039A4207D07E
:1027600041F2B800C0F201004FF44B7100F05CFF81
:102770003B68DB78002B13D03B68DB78012B0FD054
:102780003B68DB78022B0BD03B68DB78032B07D050
:1027900041F2B800C0F2010040F22D3100F044FFD8
:1027A0003B689B78002B0BD03B689B78012B07D0B4
:1027B00041F2B800C0F2010040F22E3100F034FFC7
:1027C0003B681B78002B0BD03B681B78012B07D094
:1027D00041F2B800C0F2010040F22F3100F024FFB6
:1027E0003B685B78002B0BD03B685B78012B07D0F4
:1027F00041F2B800C0F201004FF44C7100F014FF38
:10280000FB7B43F00103FB733B68DB78012B04D0B7
:10281000022B07D0002B0FD009E0FB7B43F04003D5
:10282000FB730AE0FB7B63F07F03FB7305E0FB7B3C
:1028300063F03F03FB7300E000BF3B685B78012B54
:1028400003D1FB7B43F00403FB733B681B78012B34
:1028500003D1FB7B43F00203FB733B689B78012BA6
:1028600003D1FB7B43F00803FB737A684FF000034E
:10287000C4F201039A4206D1FB7B23F03003DAB2A3
:102880007B681A7205E0FB7B23F03003DAB27B68C9
:102890001A7207F11007BD4680BD00BF80B483B037
:1028A00000AF78607B684FF000029A707B684FF051
:1028B0000002DA707B684FF001021A707B684FF0FB
:1028C00001025A7007F10C07BD4680BC704700BF7B
:1028D00080B582B000AF78600B46FB707A684FF429
:1028E0004043C4F200039A421CD07A684FF00003C0
:1028F000C4F201039A4215D07A684FF40043C4F23F
:1029000009039A420ED07A684FF44043C4F2090397
:102910009A4207D041F2B800C0F2010040F2DF3124
:1029200000F082FEFB78002B0AD0FB78012B07D049
:1029300041F2B800C0F201004FF4787100F074FE6B
:10294000FB78012B1CD17A684FF00003C4F201031D
:102950009A420AD17B6893F83030DBB263F07F0390
:10296000DAB27B6883F8302022E07B6893F830305D
:10297000DBB263F07F03DAB27B6883F8302017E0C4
:102980007A684FF00003C4F201039A4208D17B68D1
:1029900093F830307B684FF0000283F8302007E076
:1029A0007B6893F830307B684FF0000283F830206A
:1029B00007F10807BD4680BD80B485B000AF40F682
:1029C0008043C1F20003BB60194B7B604FF00003F2
:1029D000FB7315E0BB68FA7B9A71BB684FF003028A
:1029E0005A71BB687A685A62BB6803F12C03BB60FA
:1029F0007B6803F12C037B60FB7B03F10103FB731A
:102A0000FB7B042BE6D9BB68FA7B9A71BB684FF05D
:102A100000025A6240F6EC53C1F2000340F68042D5
:102A2000C1F200021A6007F11407BD4680BC70476E
:102A3000AC0C001080B487B000AF78607B681B7965
:102A4000FB737B684FF000025A7140F6F853C1F2F5
:102A500000031B683B613B691B79FA7B9A422AD1D0
:102A60003A697B689A4226D03B69002B23D040F616
:102A70000063C1F20003D3E9000140F6F073C1F234
:102A80000003D3E90023904271EB030C13D23B699E
:102A900059898AB24FF0000340F6F071C1F200018B
:102AA000D1E90001801841EB030140F60063C1F257
:102AB0000003C3E9000140F6F053C1F200031B68B4
:102AC0003B613B69002B0DD140F63A23C1F2000374
:102AD0004FF001021A7040F6F053C1F200037A6819
:102AE0001A603AE03B691B79FA7B9A4213D240F6AE
:102AF0003A23C1F200034FF001021A707B683A6971
:102B00005A623B697A689A6240F6F053C1F2000358
:102B10007A681A6021E03B695B6A7B6109E07B6946
:102B20001B79FA7B9A4208D37B693B617B695B6ABC
:102B30007B617B69002BF2D100E000BF7B687A6982
:102B40005A623B697A685A627B683A699A627B6921
:102B5000002B02D07B697A689A6207F11C07BD4698
:102B600080BC704780B483B000AF78607B685B6ADC
:102B7000002B0BD17B689B6A002B07D140F6F053EA
:102B8000C1F200034FF000021A6037E07B689B6AD5
:102B9000002B13D17B685A6A40F6F053C1F2000350
:102BA0001A607B684FF000025A6240F6F053C1F29F
:102BB00000031B684FF000029A621FE07B685B6AAB
:102BC000002B09D17B689B6A4FF000025A627B6838
:102BD0004FF000029A6211E07B689B6A7A68526A41
:102BE0005A627B685B6A7A68926A9A627B684FF085
:102BF00000025A627B684FF000029A6207F10C07EC
:102C0000BD4680BC704700BF80B586B000AF0246AD
:102C10000B46FA71BB71FB79002B02D14FF0140304
:102C2000F7E0FB79052B02D94FF00103F1E0FB79C6
:102C30004FF02C0202FB03F240F68043C1F2000386
:102C4000D3187B617B695B79032B02D14FF00103C1
:102C5000DFE0BB79402B02D94FF00103D9E07B695B
:102C60001B79BA799A4200F0D2807B69DB79FF2B1D
:102C70001AD07B69DB794FEAC30240F68873C1F250
:102C80000003D318FB60FB689A787B699B799A42B2
:102C90000AD1FB68BA791A707B691B79BA799A42B2
:102CA00002D94FF00003B4E07B69BA791A717B69ED
:102CB0005B79002B16D140F63923C1F200031B7853
:102CC000DBB203F10103DAB240F63923C1F20003AB
:102CD0001A707869FFF746FF7869FFF7ABFEFEF7D9
:102CE00055F894E07B695B79012B22D17B691A79D5
:102CF00040F6F053C1F200031B681B799A4240F280
:102D0000868040F63923C1F200031B78DBB203F161
:102D10000103DAB240F63923C1F200031A7040F61B
:102D20003A23C1F200034FF001021A70FEF72EF8A9
:102D30006DE07B69DB79FF2B42D040F63923C1F28D
:102D400000031B78DBB203F10103DAB240F639234A
:102D5000C1F200031A707B69DB794FEAC30240F6C7
:102D60008873C1F20003D318FB60FB685B687B616A
:102D7000FB681B78FB74FB689A78FB68DA700EE0DE
:102D80007B691B79FA7C9A4206D97B691B79FB74B3
:102D90007B699A79FB68DA707B695B6A7B617B6926
:102DA000002BEDD1FDF7F2FFFB681B78FA7C9A420D
:102DB00006D0FB689A78FB7C10461946FFF724FF83
:102DC000FB794FF02C0202FB03F240F68043C1F284
:102DD0000003D3187B617B691B7AFF2B17D07B69BB
:102DE0001B7A4FEA031240F63C63C1F20003D3188A
:102DF000BB60BB685B7923F00F03DBB2202B06D1ED
:102E0000786900F071FFB868796900F04FFE4FF003
:102E10000003184607F11807BD4680BD80B584B091
:102E200000AF40F6F853C1F200031B68FB6040F6A8
:102E3000F053C1F200031B68BB60BB68002B00F0BD
:102E4000B38040F6F453C1F200031B68FA689A425B
:102E500040F0AA8040F63923C1F200031B78DBB2B0
:102E6000012B00F2A18040F63823C1F200031B7849
:102E7000DBB2002B40F0988040F63A23C1F2000309
:102E80004FF000021A70FB681B79FB71BB681B795D
:102E9000BB71FB685B79012B0DD040F6F453C1F296
:102EA0000003BA681A60BB684FF001025A71B86833
:102EB000FFF758FE3BE0BA79FB799A4210D240F610
:102EC000F453C1F20003BA681A60F868FFF7B2FD64
:102ED000B868FFF747FEBB684FF001025A7126E061
:102EE000FA79BB799A4261D140F60063C1F20003DE
:102EF000D3E9000140F6F073C1F20003D3E90023E7
:102F000082EA000283EA010352EA03014ED140F64D
:102F1000F453C1F20003BA681A60F868FFF78AFD3B
:102F2000B868FFF71FFEBB684FF001025A7140F608
:102F3000F453C1F200031B681A7940F6F053C1F252
:102F400000031B681B799A4217D140F6F453C1F273
:102F500000031B6859898AB24FF0000340F6F071F4
:102F6000C1F20001D1E90001801841EB030140F6F4
:102F70000063C1F20003C3E90001FB681A68FB6843
:102F8000DB689A4208D3FB68DB681A684AF2A553EB
:102F9000C5F65A239A4204D0FB689B79184602F082
:102FA0002DF801F009F902E000BF00E000BF07F1D1
:102FB0001007BD4680BD00BF80B582B000AF40F6AF
:102FC0003923C1F200031B78DBB203F10103DAB24B
:102FD00040F63923C1F200031A7040F6EC53C1F2F7
:102FE00000031B68002B04D1FDF7D0FE4FF0000357
:102FF00013E040F6EC53C1F200031B687B6040F61F
:10300000EC53C1F200031B685A6A40F6EC53C1F25C
:1030100000031A60FDF7BAFE7B68184607F108073F
:10302000BD4680BD80B588B000AFF860B9607A60F9
:103030003B607A684FF47F43C0F20F0313404FEABE
:103040001323BB837B68FB76FB68002B02D14FF018
:10305000FF038FE03B68002B02D14FF0FF0389E0B4
:10306000FB7E402B02D94FF0FF0383E0BB8B132B79
:1030700002D84FF0FF037DE0F868B9683A6801F0C4
:1030800041FD03467B61FFF797FF03463B613B69C8
:10309000002B02D14FF0FF036CE03B697A691A60A4
:1030A0003B69FA7E1A71BA8B13464FEA83739B1AF7
:1030B0004FEA830303F104033A68D2183B69DA60EC
:1030C0003B69DA684AF2A553C5F65A2313603B6997
:1030D0004FF0FF321A623B694FF000025A623B69BF
:1030E0004FF000029A627A684FF00003C7F6FF7350
:1030F00013404FEA1353FB83FB8B002B02D14FF09D
:103100000A03FB833B69FA8B5A813B694FF000024B
:10311000DA613B694FF0FF021A723B694FF000021F
:103120001A613B694FF000025A613B694FF000029F
:103130009A613B694FF0FF02DA717B68002B13DB69
:1031400040F63923C1F200031B78DBB203F101031F
:10315000DAB240F63923C1F200031A703869FFF77A
:1031600069FCFDF713FE03E03B694FF002025A7160
:103170003B699B79184607F12007BD4680BD00BF1B
:1031800080B582B000AF40F63563C1F200031B7812
:10319000012B08D100F0E2FB40F63563C1F20003D9
:1031A0004FF000021A7040F63663C1F200031B783C
:1031B000012B73D1FEF736F940F63663C1F20003F6
:1031C0004FF000021A7069E000F0EAFF40F6086371
:1031D000C1F200035B7840F60862C1F200024FEAD8
:1031E000C303D3183A4603F1040393E8030082E8CB
:1031F000030040F60863C1F200035B7803F10101AC
:1032000046F26763C6F2666383FB01234FEA6302FB
:103210004FEAE173D21A13464FEA83039B18CA1A86
:10322000D2B240F60863C1F200035A7040F6086358
:10323000C1F200031B7803F1FF33DAB240F60863F2
:10324000C1F200031A7000F0A5FF3B7803F1FF33D1
:10325000032B25D801A252F823F000BF6D320000E5
:1032600077320000853200008F3200007B781846EC
:1032700001F076FE15E07A787B681046194600F07A
:1032800051F90EE07B78184601F000FA09E07A78EF
:103290007B681046194600F0B7FF02E000BF00E06F
:1032A00000BF40F60863C1F200031B78002B8BD1EE
:1032B00000F076FF40F60863C1F200031B78002B94
:1032C00006D140F63463C1F200034FF000021A70D9
:1032D00000F060FF07F10807BD4680BD80B500AF74
:1032E0004FF400404FF00101FEF736FB4FF48040F1
:1032F000C4F2020001F0D8FA4FF48040C4F2020098
:103300004FF0010101F002FBFDF774FDFDF7ECFD4C
:103310004FF0000041F22411C0F20101FDF738FE28
:1033200044F64940C0F200004FF000014FF4002283
:10333000244BFFF777FE03461A4643F2C823C1F237
:1033400000031A7043F2C823C1F200031B78FF2B5D
:1033500008D14FF0020041F26411C0F20101FDF703
:1033600017FEFEE741F21950C0F200004FF00001D5
:103370004FF40022144BFFF755FE03461A4643F262
:10338000C423C1F200031A7043F2C423C1F2000344
:103390001B78FF2B08D14FF0020041F29011C0F2D0
:1033A0000101FDF7F5FDFEE74FF0000041F2B41119
:1033B000C0F20101FDF7ECFDFDF76EFD4FF00003DB
:1033C000184680BDE4720010C032001080B485B091
:1033D00000AF0346FB714FF00003FB60FB79042B49
:1033E0002AD801A252F823F0FD330000093400006E
:1033F00015340000213400002D3400004FF4404308
:10340000C2F20903FB6018E04CF22003C2F2090388
:10341000FB6012E04CF24003C2F20903FB600CE0D7
:103420004CF26003C2F20903FB6006E04CF2800339
:10343000C2F20903FB6000E000BFFB68184607F119
:103440001407BD4680BC704780B584B000AF3960BA
:1034500013460246FA71BB71FB791846FFF7B6FFB7
:103460000346FB60FB68002B13D0BB79002B07D011
:10347000FB681B681A463B681A43FB681A6008E041
:10348000FB681B681A463B686FEA03031A40FB6837
:103490001A6007F11007BD4680BD00BF80B584B03B
:1034A00000AF03463960FB71FB791846FFF78EFFCA
:1034B0000346FB60FB68002B02D0FB683A689A6108
:1034C00007F11007BD4680BD80B584B000AF03464C
:1034D0003960FB71FB791846FFF778FF0346FB6004
:1034E000FB68002B02D0FB683A68DA6107F110072D
:1034F000BD4680BD80B584B000AF0346FB71FB794B
:103500001846FFF763FF0346FB60FB68002B02D001
:10351000FB685B6901E04FF00003184607F11007F4
:10352000BD4680BD80B584B000AF03463960FB71F5
:10353000FB79132B02D94FF0010335E0FB794FEAF9
:10354000031240F63C63C1F20003D318FB60FB6832
:103550005B7903F00F03DBB2022B02D04FF00103C3
:1035600022E0FB68DB88002B1CD140F63923C1F236
:1035700000031B78DBB203F10103DAB240F6392312
:10358000C1F200031A70FB683A681A60FB684FF0DA
:103590000102DA80F86800F013FBFDF7F7FB4FF04B
:1035A000000301E04FF00703184607F11007BD467E
:1035B00080BD00BF80B582B000AF41F6F023C0F2FD
:1035C00001037B6040F20003C1F200033B600BE0AB
:1035D0007B681A683B681A603B6803F104033B6030
:1035E0007B6803F104037B603A6840F63C13C1F248
:1035F00000039A42ECD3084808494FF00002884281
:10360000B8BF40F8042BFADBFEF7E2F9FFF766FEDD
:1036100007F10807BD4680BD40090010F073001097
:1036200080B400AFFEE700BF80B483B000AF786025
:103630003960FEE780B485B000AF786039603B68E0
:10364000002B7CD040F63863C1F200031B68002BCE
:1036500009D17B683A681A6240F63863C1F2000308
:103660007A681A605FE040F63863C1F200031B68B5
:10367000BB603B68FB6053E0FA68BB681B6AD31A07
:10368000FB60FB68002B37DABB689B6A002B0ED00F
:10369000BB689B6A7A685A62BB689A6A7B689A625E
:1036A0007B68BA685A62BB687A689A6213E040F62F
:1036B0003863C1F200031A687B685A6240F63863C7
:1036C000C1F200031B687A689A6240F63863C1F25F
:1036D00000037A681A607B685B6A1A6AFB68D21812
:1036E0007B681A627B685B6A7A68526A116A7A68D8
:1036F000126A8A1A1A6216E0FB68002B0DDBBB689F
:103700005B6A002B09D17B68BA689A62BB687A68E9
:103710005A62FA687B681A6205E0BB685B6ABB6044
:10372000BB68002BA8D17B684FF002025A7140F6AB
:103730003A23C1F200034FF001021A7000E000BF0B
:1037400007F11407BD4680BC704700BF80B483B04A
:1037500000AF78607B689B6A002B0BD17B685B6A4B
:10376000002B07D140F63863C1F200034FF000028E
:103770001A6046E07B689B6A002B19D17B685A6A05
:1037800040F63863C1F200031A607B685B6A7A68AE
:10379000526A116A7A68126A8A181A627B685B6ACE
:1037A0004FF000029A627B684FF000025A6228E0F4
:1037B0007B685B6A002B09D17B689B6A4FF0000233
:1037C0005A627B684FF000029A621AE07B689B6A3B
:1037D0007A68526A5A627B685B6A7A68926A9A620D
:1037E0007B685B6A7A68526A116A7A68126A8A1818
:1037F0001A627B684FF000025A627B684FF0000249
:103800009A627B684FF0FF321A6207F10C07BD46DF
:1038100080BC704780B582B000AF786040F6382336
:10382000C1F200031B78DBB2002B02D04FF0030380
:1038300032E07B68B3F1FF3F02D14FF002032BE08F
:103840007B68002B02D14FF0000325E040F63923BE
:10385000C1F200031B78DBB2002B02D04FF015033E
:103860001AE040F63923C1F200031B78DBB203F102
:103870000103DAB240F63923C1F200031A7040F6B0
:10388000F853C1F200031B6818467968FFF7D2FEAF
:10389000FDF77CFA4FF00003184607F10807BD4614
:1038A00080BD00BF80B584B000AFF871B9717A7186
:1038B0007B8040F63823C1F200031B78DBB2002B7B
:1038C00002D04FF0030344E0BB793B2B07D87B7950
:1038D0003B2B04D87A8840F2E7339A4202D94FF062
:1038E000020336E040F63923C1F200031B78DBB255
:1038F000002B02D04FF015032BE0FB794FF46162EF
:1039000002FB03F1BA7913464FEA03139B1A4FEAFD
:103910008303CA187B79D3184FF0640202FB03F1CA
:103920007B884FF0640202FB03F303F5FA7244F65E
:10393000D353C1F2620383FB02034FEAA3104FEAA1
:10394000E273C31ACB18FB60F868FFF763FF4FF010
:103950000003184607F11007BD4680BD80B582B050
:1039600000AF40F63863C1F200031B687B602EE0B5
:103970007B681B7AFF2B02D0786800F0B5F97B6872
:10398000DB69002B04D07B68DB69184600F03AFF46
:103990007B684FF0FF321A627B685A6A40F63863E0
:1039A000C1F200031A607B684FF000025A62786827
:1039B000FFF740F840F63863C1F200031B687B60F4
:1039C0007B68002B03D07B684FF000029A627B6813
:1039D000002B03D07B681B6A002BC9D007F10807B6
:1039E000BD4680BD80B500AF40F63923C1F200036B
:1039F0001B78DBB2012B0ED940F63463C1F2000311
:103A00004FF001021A7040F63563C1F200034FF027
:103A100001021A7001E0FFF7A1FF80BD80B485B0FC
:103A200000AF4FF00003FB7340F63C63C1F20003AC
:103A3000BB601D4B7B6018E0BB687A681A60BB688E
:103A4000FA7B1A71BA6853794FF0040161F30303EA
:103A50005371BB6803F11003BB607B6803F1100373
:103A60007B60FB7B03F10103FB73FB7B122BE3D930
:103A7000BA6853794FF0040161F303035371BB68D3
:103A80004FF000021A60BB68FA7B1A7140F67C7333
:103A9000C1F2000340F63C62C1F200021A6007F175
:103AA0001407BD4680BC70474C0E001080B584B032
:103AB00000AF7860396040F63923C1F200031B780B
:103AC000DBB203F10103DAB240F63923C1F200039D
:103AD0001A707B68DB68FB607B681A793B681A7236
:103AE0007B685B7923F00F03DBB2102B16D1FB68E8
:103AF000002B07D17B683A68DA6050E0FB685B69AD
:103B0000FB6000E000BFFB685B69002BF6D1FB683F
:103B10003A685A613B68FA689A6140E07B685B7971
:103B200023F00F03DBB2202B39D1FB68002B03D12C
:103B30007B683A68DA6032E0FB681A793B681B7987
:103B40009A4209D97B683A68DA603B68FA685A6138
:103B5000FB683A689A6122E0FB685B69BB600AE037
:103B6000BB681A793B681B799A4208D8BB68FB602E
:103B7000BB685B69BB60BB68002BF1D100E000BF94
:103B8000FB683A685A613B68FA689A613B68BA68B0
:103B90005A61BB68002B02D0BB683A689A613B68E7
:103BA0004FF002025A7140F63A23C1F200034FF07F
:103BB00001021A70FDF7EAF807F11007BD4680BD53
:103BC00080B584B000AF78607B68DB68FB60FB6821
:103BD000002B00F08480FB685A697B68DA607B68A0
:103BE000DB68002B04D07B68DB684FF000029A6131
:103BF000FB684FF000025A61FB684FF0FF021A7237
:103C0000FB681B6AB3F1FF3F02D0F868FFF79EFD27
:103C10007B685B7903F00F03DBB2022B0FD17B686B
:103C20001A68FB681A617B684FF000021A607B68B3
:103C3000DB8803F1FF339AB27B68DA803EE07B6871
:103C40005B7903F00F03DBB2032B25D17B681B6884
:103C5000BB60BB681A68BB68DB884FEA8303D31874
:103C60001A68FB681A61BB68DB8803F101039AB22A
:103C7000BB68DA80BB689B8903F1FF339AB2BB68EB
:103C80009A81BB68DA88BB685B899A4216D1BB68A7
:103C90004FF00002DA8011E07B685B7903F00F03DC
:103CA000DBB2012B0AD17B68DB8803F1FF339AB2C8
:103CB0007B68DA80FB684FF0FF321A6140F6F853F8
:103CC000C1F200031B68FA689A4204D1FB684FF006
:103CD00001025A7104E0F868FEF7ACFE00E000BF94
:103CE00007F11007BD4680BD80B485B000AF786095
:103CF0007B681B7A4FEA031240F63C63C1F2000373
:103D0000D318FB607B685B69002B08D17B689B69DB
:103D1000002B04D1FB684FF00002DA6031E07B68D1
:103D20009B69002B0DD17B685B694FF000029A61A3
:103D30007B685A69FB68DA607B684FF000025A6161
:103D40001FE07B685B69002B09D17B689B694FF0A2
:103D500000025A617B684FF000029A6111E07B68B3
:103D60009B697A6852695A617B685B697A68926973
:103D70009A617B684FF000029A617B684FF0000205
:103D80005A617B684FF0FF021A7207F11407BD46B3
:103D900080BC704780B487B000AF13460246FA710A
:103DA0000A46BA717B71BB797B61FB794FEA4303A9
:103DB0003B614FF44043C4F20203FB607B690F2B6D
:103DC00007D97B69A3F110037B613B6903F1010310
:103DD0003B613B694FEA8303FA68D3183A694FEABB
:103DE0008202F9688A1811687A694FEA42024FF034
:103DF000030000FA02F26FEA02020A401A603B690D
:103E00004FEA8303FA68D3183A694FEA8202F968E5
:103E10008A18116878797A694FEA420200FA02F248
:103E20000A431A6007F11C07BD4680BC704700BFFB
:103E300080B487B000AF13460246FA710A46BA71E1
:103E40007B71BB797B61FB794FEA43033B614CF2A9
:103E50004003C4F20203FB607B690F2B07D97B6927
:103E6000A3F110037B613B6903F101033B613B69F3
:103E70004FEA8303FA68D3183A694FEA8202F96875
:103E80008A1811687A694FEA42024FF0030000FA7B
:103E900002F26FEA02020A401A603B694FEA8303AA
:103EA000FA68D3183A694FEA8202F9688A181168E9
:103EB00078797A694FEA420200FA02F20A431A60FC
:103EC00007F11C07BD4680BC704700BF80B485B0B9
:103ED00000AF13460246FA710A46BA717B714CF282
:103EE0006803C4F20203FB607B79012B12D1FB79DA
:103EF0004FEA8303FA68D318FA794FEA8202F96825
:103F00008A181168BA794FF0010000FA02F20A43E8
:103F10001A6013E0FB794FEA8303FA68D318FA7941
:103F20004FEA8202F9688A181168BA794FF00100E5
:103F300000FA02F26FEA02020A401A6007F114075F
:103F4000BD4680BC704700BF80B582B000AF7860CE
:103F50007B6819787B685A787B689B78084611469D
:103F60001A46FFF717FF7B6819787B685A787B68D9
:103F7000DB78084611461A46FFF75AFF7B68197826
:103F80007B685A787B681B79084611461A46FFF70A
:103F90009DFF07F10807BD4680BD00BF80B485B016
:103FA00000AF786040F68073C1F200031B68002BFD
:103FB00008D140F68073C1F2000347F2F072C1F2FB
:103FC00000021A6040F68073C1F200031B68FB60B8
:103FD00040F68073C1F200031A687B68D21840F67D
:103FE0008073C1F200031A60FB68184607F11407DA
:103FF000BD4680BC704700BF80B483B000AF78601E
:104000004FF0FF33184607F10C07BD4680BC7047E0
:1040100080B485B000AFF860B9607A604FF00003FB
:10402000184607F11407BD4680BC704780B485B0C0
:1040300000AFF860B9607A604FF00003184607F1EE
:104040001407BD4680BC704780B485B000AFF860EF
:10405000B9607A607B68184607F11407BD4680BCDA
:10406000704700BF80B400AFFEE700BF80B487B0E8
:1040700000AF78600B467B804FF6FF73FB607B8858
:10408000002B05D1FB689BB26FEA03039BB242E0B1
:104090004FF00003FB757B681B783B617B6803F185
:1040A00001037B601CE0FA683B69534003F00103A5
:1040B000DBB2002B08D0FB684FEA530383F40443C0
:1040C00083F00803FB6003E0FB684FEA5303FB60E7
:1040D000FB7D03F10103FB753B694FEA53033B6131
:1040E000FB7D072BDFD97B8803F1FF337B807B8847
:1040F000002BCDD1FB686FEA0303FB60FB683B61DB
:10410000FB684FEA03223B694FEA1323DBB21343F8
:10411000FB60FB689BB2184607F11C07BD4680BCDC
:10412000704700BF80B58CB000AF78604FF480401E
:10413000C4F20200796800F025FC7B681B68FB6014
:104140007B685B683B617B689B687B617B68DB6845
:10415000BB617B689B6903F1FF33FB617B68DB69B3
:10416000A3F5EC63A3F10C033B627B681B697B62E4
:104170007B685B69BB624FF0FF33FB6207F10C03A6
:10418000184602F06DF80346184607F13007BD46A1
:1041900080BD00BF80B400AF62B6BD4680BC704732
:1041A00080B400AF72B6BD4680BC7047A0F11C0061
:1041B00080F30988704700BF024B1B68024A1168F0
:1041C0001960704704000010080000100B4B1968BC
:1041D0000B4A126891420AD0EFF3098020E9F00FF0
:1041E00008601A601068B0E8F00F80F30988054B8A
:1041F000002018704EF0040E70470000F80D0010FB
:10420000F40D0010390A001080B584B000AF0346E9
:104210003960FB71FB79132B02D94FF0010354E095
:10422000FB794FEA031240F63C63C1F20003D31856
:10423000FB60FB685B7903F00F03DBB2032B02D05A
:104240004FF0010341E0FB681B68BB60BB689A89C3
:10425000BB685B899A4202D14FF0080335E040F613
:104260003923C1F200031B78DBB203F10103DAB298
:1042700040F63923C1F200031A70BB681A68BB68A4
:104280001B894FEA8303D3183A681A60BB681B89FD
:1042900003F101039AB2BB681A81BB689B8903F1E1
:1042A00001039AB2BB689A81BB681A89BB685B89B3
:1042B0009A4203D1BB684FF000021A81F868FFF7F9
:1042C0007FFCFCF763FD4FF00003184607F1100771
:1042D000BD4680BD80B582B000AF40F63923C1F243
:1042E00000031B78DBB203F10103DAB240F6392395
:1042F000C1F200031A7040F68473C1F200031B7808
:10430000092B2FD840F68473C1F200031B781A469C
:10431000FA7103F10103DAB240F68473C1F20003CB
:104320001A70FCF733FDFB794FEAC30240F688733D
:10433000C1F20003D3183B603B684FF0FF02DA7014
:104340003B684FF0FF021A703B684FF000025A7052
:104350003B684FF0FF029A703B684FF000025A60D2
:10436000FB7903E0FCF712FD4FF0FF03184607F15D
:104370000807BD4680BD00BF80B586B000AF0346CC
:10438000FB7140F63823C1F200031B78DBB2002B2F
:1043900002D04FF00303C3E040F63923C1F200031B
:1043A0001B78DBB2002B02D04FF01503B8E040F6CB
:1043B0008473C1F200031B78FA799A4202D34FF05A
:1043C0000103ADE040F63923C1F200031B78DBB2F4
:1043D00003F10103DAB240F63923C1F200031A7087
:1043E00040F6F853C1F200031B683B61FB794FEACA
:1043F000C30240F68873C1F20003D318FB603B6927
:10440000FA79DA71FB685B78002B10D13B691A7975
:10441000FB681A703B699A79FB689A703B699A79D4
:10442000FB68DA70FB684FF001025A7074E0FB68B9
:104430005B78012B70D1FB689B784FF02C0202FB5C
:1044400003F240F68043C1F20003D3187B617B691D
:104450001A793B691B799A422ED93B691A797B6993
:104460001A713B699A79FB68DA707B695B79002B7A
:1044700006D17869FEF776FB7869FEF7DBFA1BE078
:104480007B691B7AFF2B17D07B691B7A4FEA0312DB
:1044900040F63C63C1F20003D318BB60BB685B7994
:1044A00023F00F03DBB2202B06D17869FFF71CFC49
:1044B000B8687969FFF7FAFA3B694FF002025A715E
:1044C00040F63A23C1F200034FF001021A703B6933
:1044D0004FF000025A623B694FF000029A62FB689B
:1044E0005B687B617B69002B07D1FB683A695A6086
:1044F00012E07B695B6A7B6100E000BF7B695B6AFD
:10450000002BF6D17B693A695A623B697A699A62F3
:104510003B694FF000025A62FCF738FC4FF0000391
:10452000184607F11807BD4680BD00BF80B586B0AC
:1045300000AF0346FB7140F63823C1F200031B783D
:10454000DBB2002B02D04FF003039AE040F68473F5
:10455000C1F200031B78FA799A4202D34FF00103AB
:104560008FE040F63923C1F200031B78DBB203F180
:104570000103DAB240F63923C1F200031A70FB7965
:104580004FEAC30240F68873C1F20003D318FB6000
:10459000FB689B784FF02C0202FB03F240F680434D
:1045A000C1F20003D3187B617B694FF0FF02DA711F
:1045B000FB685B68002B0AD1FB684FF000025A7061
:1045C000FB684FF0FF029A70FCF7E0FB57E0FB68D6
:1045D0009B78FB72FB68DB78FA7A9A4219D1FB6808
:1045E0005B687B617B691B79FB740EE07B691B79DF
:1045F000FA7C9A4206D97B691B79FB747B699A79AC
:10460000FB68DA707B695B6A7B617B69002BEDD1AB
:104610000BE0FA7A40F68043C1F200034FF02C0120
:1046200001FB02F29B181B79FB74FB684FF0FF0241
:104630009A70FB681B78FA7A10461946FEF7E4FA7E
:10464000FB685B687B617B695A6AFB685A607B69BF
:104650001A79FB681A707B699A79FB689A707B6992
:10466000FA7C1A717B694FF000025A627B694FF045
:1046700000029A627869FEF7DDF9FCF787FB4FF0DC
:104680000003184607F11807BD4680BD80B584B009
:1046900000AF0346FB7140F6D873C1F20003BB6064
:1046A000FB791F2B02D94FF0010377E0BB689A68B2
:1046B000FB794FF0010101FA03F31340002B02D103
:1046C0004FF001036AE0BB681A68FB794FF0010103
:1046D00001FA03F31340002B02D04FF000035DE01A
:1046E000BB681A68FB794FF0010101FA03F31A4322
:1046F000BB681A6040F63923C1F200031B78DBB2B5
:1047000003F10103DAB240F63923C1F200031A7053
:10471000BB68DB68FB603AE0FB681B7C002B18D1B0
:10472000FB689A68BB681B681A40FB689B689A42E2
:1047300026D1F86800F038F80346FB60BB685A6879
:10474000FB794FF0010101FA03F31340002B1BD05A
:1047500020E0FB689A68BB681B681340002B0FD0F1
:10476000F86800F021F80346FB60BB685A68FB79E3
:104770004FF0010101FA03F31340002B06D009E0CA
:10478000FB681B68FB6002E000BF00E000BFFB6845
:10479000002BC1D1FCF7FAFA4FF00003184607F1DD
:1047A0001007BD4680BD00BF80B584B000AF786003
:1047B000786800F027F87B68DB68FB60FB681B6AA1
:1047C000B3F1FF3F02D0F868FEF7C0FFFB684FF07F
:1047D000FF32DA6140F6F853C1F200031B68FA6851
:1047E0009A4204D1FB684FF001025A7102E0F86866
:1047F000FEF720F97B681B68184607F11007BD46D5
:1048000080BD00BF80B483B000AF78607B681B6858
:10481000002B12D17B685B68002B0ED140F6D87359
:10482000C1F200034FF00002DA6040F6D873C1F223
:1048300000034FF000021A612BE07B681B68002B1D
:104840000CD17B685A6840F6D873C1F200031A6134
:104850007B685B684FF000021A601AE07B685B6857
:10486000002B0CD17B681A6840F6D873C1F20003A4
:10487000DA607B681B684FF000025A6009E07B68D1
:104880001B687A6852685A607B685B687A6812684D
:104890001A607B68DB684FF00002DA6107F10C07F1
:1048A000BD4680BC704700BF80B582B000AF786065
:1048B0007A684FF48043C4F202039A4207D041F26F
:1048C000D810C0F201004FF03801FEF7ADFE4FF4F2
:1048D00000704FF00101FDF73FF87B684FF00002D8
:1048E0001A707B684FF000021A727B684FF000026A
:1048F0001A737B684FF0FF021A747B684FF0000256
:104900001A6407F10807BD4680BD00BF80B582B0BC
:1049100000AF78600B46FB707A684FF48043C4F2B6
:1049200002039A4207D041F2D810C0F201004FF0C2
:104930006C01FEF779FEFB78002B0AD0FB78012B87
:1049400007D041F2D810C0F201004FF06D01FEF720
:104950006BFEFB78012B08D17B681B7ADBB243F03E
:104960000103DAB27B681A7207E07B681B7ADBB25C
:1049700003F01203DAB27B681A7207F10807BD462A
:1049800080BD00BF80B582B000AF786039607A68C2
:104990004FF48043C4F202039A4207D041F2D81088
:1049A000C0F2010040F2C711FEF73EFE7B6893F8AB
:1049B0002C30DBB203F01F023B68DA607B6893F8AF
:1049C0003030DBB203F007023B681A617B689B8ED4
:1049D0009BB24FEAC3534FEAD3533A6853617B68A3
:1049E00093F82830DBB203F01F023B689A607B68C3
:1049F00093F82430DBB203F03F023B685A607B68D7
:104A000093F82030DBB203F03F023B681A607B680A
:104A100093F83830DBB203F00F023B689A617B6891
:104A20009B8F9BB24FEA03534FEA13533A68D3610B
:104A300007F10807BD4680BD80B586B000AFF860BD
:104A40000B467A60FB72FA684FF48043C4F20203AB
:104A50009A4207D041F2D810C0F2010040F2D721AB
:104A6000FEF7E2FDFB7A042B07D941F2D810C0F221
:104A700001004FF43671FEF7D7FDFB6803F14403E4
:104A80007B61FB7A4FEA83037A69D3187B617B6988
:104A90007A681A6007F11807BD4680BD80B584B0FA
:104AA00000AF78600B46FB707A684FF48043C4F225
:104AB00002039A4207D041F2D810C0F2010040F23E
:104AC000EF21FEF7B1FDFB78042B07D941F2D81096
:104AD000C0F201004FF43C71FEF7A6FD7B6803F1C4
:104AE0004403FB60FB784FEA8303FA68D318FB604A
:104AF000FB681B68BB60BB68184607F11007BD4622
:104B000080BD00BF80B487B000AFF860B9607A6044
:104B10007B687B617B694FF080721A607B69A3F1CF
:104B200004037B61FA687B691A607B69A3F1040363
:104B30007B617B696FF001021A607B69A3F114034A
:104B40007B61BA687B691A607B69A3F120037B6192
:104B50007B69184607F11C07BD4680BC704700BF43
:104B600080B500AF40F63923C1F200031B78DBB2F9
:104B700003F10103DAB240F63923C1F200031A70DF
:104B800040F6F073C1F20003D3E900014FF00102D7
:104B90004FF00003801841EB030140F6F073C1F2BF
:104BA0000003C3E9000140F63863C1F200031B684B
:104BB000002B1BD040F63863C1F200031B681B6A50
:104BC000012B09D940F63863C1F200031B681A6A49
:104BD00002F1FF321A6209E040F63863C1F20003C5
:104BE0001B684FF000021A62FEF7FCFE40F66C23D1
:104BF000C1F200031B68002B1BD040F66C23C1F2EE
:104C000000031B685B68012B09D940F66C23C1F2D5
:104C100000031B685A6802F1FF325A6009E040F64F
:104C20006C23C1F200031B684FF000025A60FCF7CE
:104C30003BFC40F63A23C1F200034FF001021A7028
:104C4000FCF7A4F880BD00BF80B584B000AF7860E9
:104C50004FF0000041F24421C0F20101FCF798F945
:104C600000F0EEF90346002B08D14FF0010041F2AD
:104C70005C21C0F20101FCF78BF9F1E74FF0000075
:104C800041F27421C0F20101FCF782F94FF00F03E9
:104C9000FB7300F057FB0346002B03D14FF00100DC
:104CA00000F070FB4FF0010041F29821C0F20101C9
:104CB000FCF76EF928E0FB7B002B14BF00230123D7
:104CC000DBB2FA7B02F1FF32FA73002B0AD04FF00D
:104CD000010041F2B421C0F20101FCF759F900F0E2
:104CE0001FFBBDE74FF0010041F2FC21C0F20101C2
:104CF000FCF74EF94FF000004FF000014FF00402B6
:104D00004FF00003FEF7CEFD4FF0010000F05CFB1A
:104D10000346002BCFD04FF0000041F22831C0F203
:104D20000101FCF735F94FF01903BB734FF0000098
:104D300041F24C31C0F20101FCF72AF939E0BB7BAA
:104D4000002B14BF00230123DBB2BA7B02F1FF3238
:104D5000BA73002B0AD04FF0010041F28031C0F24B
:104D60000101FCF715F900F0DBFA79E700F04AFBE6
:104D70000346012B0BD04FF0010041F2C031C0F2CD
:104D80000101FCF705F94FF00503FB7381E74FF0D4
:104D9000010041F2E831C0F20101FCF7F9F84FF0EF
:104DA00000004FF000014FF004024FF00003FEF747
:104DB00079FD41F20C40C0F201004FF0580100F0C3
:104DC00041FB0346002BBAD000F01AF80346002B33
:104DD0000AD14FF0010041F21C41C0F20101FCF781
:104DE000D7F800F0DDFB9EE74FF000004FF0000128
:104DF0004FF002024FF4FA73FEF754FDE4E700BFF0
:104E000080B58CB000AF40F6F873C1F20003FB62CE
:104E1000FB6A4FF024021A70FB6A03F10103FB6284
:104E2000FB6A03F1090318464FF08001FBF7ACFE63
:104E300003467B857B8D002B0AD14FF0000041F2A9
:104E40002C41C0F20101FCF7A3F84FF001037FE011
:104E50007B8DDBB203F10A0387F82930FB6A97F8F0
:104E600029201A70FB6A03F10103FB624FF48040B2
:104E7000C4F202004FF00001FFF710FE03467B6210
:104E80007B6A03F101034FF48040C4F202004FF04B
:104E900000011A46FFF7D0FDFB6A7A6A1A60FB6AC6
:104EA00003F10403FB623B464FF48040C4F202006E
:104EB0001946FFF767FD3B461846FFF733F90346EF
:104EC0001A46FB6A1A60FB6A03F10403FB627B8DDE
:104ED000FA6AD318FB62FA6A40F6F873C1F200036B
:104EE0006FEA0303D3181D481946FFF7BFF80346BE
:104EF0007B84FB6A7A8C1A80FB6A03F10203FB62F3
:104F0000FB6A9AB240F6F873C1F200039BB2D31A5F
:104F10009BB240F6F870C1F20000194600F0E0FACA
:104F20000346002B0AD04FF0000041F24441C0F28A
:104F30000101FCF72DF84FF0010309E04FF00100EB
:104F400041F26441C0F20101FCF722F84FF0000386
:104F5000184607F13007BD4680BD00BFF90F0010AD
:104F600080B584B000AF0346FB71FB79132B02D9E7
:104F70004FF0010337E0FB794FEA031240F63C6340
:104F8000C1F20003D318FB60FB685B7903F00F03E9
:104F9000DBB2012B02D04FF0010324E0FB68DA887A
:104FA000FB681B899A4202D14FF006031BE040F6D2
:104FB0003923C1F200031B78DBB203F10103DAB23B
:104FC00040F63923C1F200031A70FB68DB8803F155
:104FD00001039AB2FB68DA80F868FEF7F1FDFBF78F
:104FE000D5FE4FF00003184607F11007BD4680BDFF
:104FF00080B483B000AF7860FEE700BF80B483B0B8
:1050000000AF0346FB71FEE780B483B000AF0346F8
:10501000FB714FF46143CEF2000397F907204FEA8A
:105020005212F97901F01F014FF0010000FA01F16D
:1050300043F8221007F10C07BD4680BC704700BF43
:1050400080B586B000AF41F2F803C1F200034FF023
:10505000000283F8002141F2F803C1F200034FF08F
:105060000002C3F8042141F2F803C1F200034FF03B
:105070000002C3F8082141F20423C1F200034FF4F7
:1050800096721A804FF00203BB734FF000033B741B
:105090004FF00003FB734FF000037B734FF00203EC
:1050A0003B7307F10C031846FEF74EFF4FF0010368
:1050B0007B7307F10C031846FEF746FF07F1040364
:1050C0001846FDF78DF84FF4E1337B6007F10403D8
:1050D0004FF00000C4F201001946FCF7CDFE3B463C
:1050E0001846FDF7DBFB3B464FF00000C4F2010021
:1050F0001946FDF711FB4FF00000C4F201004FF01C
:105100000101FDF7E5FB4FF00000C4F201004FF094
:1051100000014FF00102FDF7E7F94FF00600FFF73D
:1051200073FF4FF000004FF040014FF00102FEF717
:105130008BF94FF002004FF400614FF00102FEF7CF
:1051400083F94FF002004FF480514FF00102FEF757
:105150007BF94FF002004FF020014FF00102FEF703
:1051600073F94FF00003BB734FF000033B744FF033
:105170000303FB734FF008037B734FF002033B7391
:1051800007F10C031846FEF7DFFE4FF002004FF464
:1051900080714FF00002FEF757F94FF00003BB7328
:1051A0004FF000033B744FF00303FB734FF0030316
:1051B0007B734FF002033B7307F10C031846FEF7B5
:1051C000C3FE4FF002004FF008014FF00002FEF75F
:1051D0003BF94FF000004FF04001FEF75FF94FF050
:1051E00000004FF000014FF005024FF00003FEF702
:1051F00059FB4FF000004FF04001FEF765F94FF00A
:1052000002004FF40061FEF749F94FF000004FF043
:1052100000014FF000024FF0FA03FEF743FB4FF09E
:1052200002004FF40061FEF74FF94FF032037B614B
:105230004FF00200FEF75EF9034603F48073002B83
:1052400019D07B69002B14BF00230123DBB27A69DC
:1052500002F1FF327A61002B02D04FF0000359E0D7
:105260004FF000004FF000014FF000024FF06403D8
:10527000FEF718FBDCE700BF4FF002004FF480514F
:10528000FEF70CF94FF000004FF000014FF0010263
:105290004FF00003FEF706FB4FF002004FF4805181
:1052A000FEF712F94FF00200FEF724F9034603F46B
:1052B0008073002B02D14FF000032BE04FF0000071
:1052C0004FF000014FF001024FF00003FEF7EAFA41
:1052D0004FF00503FB7400E000BF41F28040C0F2D4
:1052E000010000F021FA00F041FA0346002B0ED035
:1052F000FB7C002B14BF00230123DBB2FA7C02F1FC
:10530000FF32FA74002BE7D04FF0000302E000BF39
:105310004FF00103184607F11807BD4680BD00BFD6
:1053200080B500AF41F28440C0F2010000F0FCF90A
:1053300000F01CFA0346002B14BF00230123DBB24C
:10534000184680BD80B582B000AF41F29040C0F2F7
:10535000010000F0E9F907F1040341F29C40C0F2BA
:105360000100194600F044FA0346012B02D04FF029
:10537000040301E07B68DBB2184607F10807BD466D
:1053800080BD00BF80B584B000AF0346FB71FB79E0
:10539000002B02D04FF0000301E04FF00203FB604E
:1053A00041F2AC40C0F20100F96800F0A1F900F050
:1053B000DDF90346002B14BF00230123DBB218469E
:1053C00007F11007BD4680BD80B582B000AF03462F
:1053D000FB71FB79002B0CBF0023012341F2CC4071
:1053E000C0F20100194600F083F900F0BFF903464E
:1053F000002B14BF00230123DBB2184607F1080776
:10540000BD4680BD80B582B000AF41F2D840C0F249
:10541000010000F089F907F1040341F2E440C0F211
:105420000100194600F0E4F90346002B02D14FF0C9
:10543000FF0301E07B68DBB25BB2184607F10807A7
:10544000BD4680BD80B582B000AF78600B467B80E2
:105450007B8841F2F040C0F201004FF001011A4692
:1054600000F046F9786800F05FF941F20050C0F2B0
:10547000010000F059F900F079F90346012B02D040
:105480004FF0000327E04FF002004FF02001FEF73D
:1054900005F84FF000004FF000014FF000024FF40C
:1054A000FA73FEF7FFF94FF002004FF02001FEF70C
:1054B0000BF84FF000004FF000014FF000024FF4E6
:1054C000FA73FEF7EFF900F051F90346002B14BF11
:1054D00000230123DBB2184607F10807BD4680BD53
:1054E00080B582B000AF78600B467B8041F20C50F3
:1054F000C0F201004FF0010100F0FAF800F036F9B7
:105500000346012B18D04FF0000344E04FF0020097
:10551000FDF7F0FF034603F00803002B02D04FF025
:10552000000338E07B681B787A6802F101027A6038
:10553000184600F0DFF900E000BF7B88002B0CBFAD
:1055400000230123DBB27A8802F1FF327A80002B3C
:10555000DCD14FF002004FF02001FDF79FFF4FF02C
:1055600000004FF000014FF000024FF0FA03FEF789
:1055700099F94FF002004FF02001FDF7A5FF4FF021
:1055800000004FF000014FF000024FF0FA03FEF769
:1055900089F94FF00103184607F10807BD4680BDA1
:1055A00080B500AF41F21850C0F201004FF0010188
:1055B00000F09EF800F0DAF80346002B14BF002339
:1055C0000123DBB2184680BD80B592B004AF78608D
:1055D00041F23850C0F2010000F0A6F807F12801AE
:1055E00007F1170207F1200307F11600009007F1F9
:1055F0001000019007F11800029007F10C000390D1
:1056000041F24450C0F2010000F0F2F803467B631F
:1056100000F0ACF80346002B02D04FF000035BE033
:105620007B6B072B02D04FF0000355E0D7E90A232C
:10563000104619462CA3D3E9002300F08DFA024648
:105640000B461046194600F099FC02467B681A602A
:10565000FB7D4E2B05D17B681B6843F080527B6835
:105660001A60D7E90823104619461FA3D3E900237F
:1056700000F072FA02460B461046194600F07EFC16
:1056800002467B685A604FF04503BB757B685B68D8
:1056900043F080527B685A60D7E9062310461946CA
:1056A0004FF000024FF0804303F5B20300F054FACC
:1056B00002460B461046194600F060FC03469AB2BB
:1056C0007B681A81FB68DAB27B689A723B69DAB24E
:1056D0007B68DA724FF00103184607F13807BD46C0
:1056E00080BD00BFAFF30080000000000088C34011
:1056F0000FB480B582B000AF07F114037B6041F2B4
:105700000820C1F2000039697A6802F02BFC41F2EE
:105710000820C1F2000000F007F807F10807BD46B5
:10572000BDE8804004B0704780B584B000AF7860B9
:1057300000BF07F10F0318464FF0010100F036F9E2
:105740000346012BF5D008E07B681B787A6802F1EC
:1057500001027A60184600F0CDF87B681B78002BB8
:10576000F2D107F11007BD4680BD00BF80B500AF84
:1057700000E000BF41F20820C1F200004FF08001BC
:1057800000F05EF80346002B02D14FF0FF032DE03E
:1057900041F20820C1F2000001F092F90346012B0A
:1057A000E7D100BF41F20823C1F200031B78A3F147
:1057B0003003042B18D801A252F823F0D15700006F
:1057C000D7570000E9570000DD570000E3570000FD
:1057D0004FF000030AE04FF0010307E04FF003032E
:1057E00004E04FF0040301E04FF0FF03184680BDD2
:1057F0000FB480B582B000AF41F20820C1F20000C2
:105800004FF0800100F01CF80346002B02D14FF04E
:1058100000030DE007F114033B6041F20820C1F2E0
:10582000000039693A6802F0D3FB03467B607B686D
:10583000184607F10807BD46BDE8804004B0704730
:1058400080B584B000AF78600B467B807B88002BEE
:1058500002D14FF0000348E04FF00003FB817B884A
:10586000012B08D1FB897A68D3184FF000021A7017
:105870004FF0000339E000F055F80346BB81BB89C7
:1058800003F47F43002B10D04FF0010041F2805110
:10589000C0F20101FBF77CFBFB897A68D3184FF05B
:1058A00000021A704FF000031FE0BB890A2B11D0D1
:1058B000BB890D2B10D0FB897A68D318BA89D2B274
:1058C0001A707B8803F1FF337B80FB8903F10103AE
:1058D000FB81C4E700BFC2E700BFFB897A68D31829
:1058E0004FF000021A704FF00103184607F110073D
:1058F000BD4680BD80B582B000AF0346FB7107F1A5
:10590000070318464FF0010100F03AF80346012B57
:1059100014BF00230123DBB2184607F10807BD4678
:1059200080BD00BF80B582B000AF41F20423C1F258
:1059300000031B88FB8007F1050318464FF00101A7
:1059400000F034F80346012B01D17B7913E0FB888A
:10595000002B14BF00230123DBB2FA8802F1FF32CF
:10596000FA80002B02D04FF47F4304E04FF0010097
:10597000FDF750FFDFE7184607F10807BD4680BD79
:1059800080B582B000AF786039604FF00000C4F29B
:10599000010079683A684FF00103FCF7B3FC034655
:1059A000184607F10807BD4680BD00BF80B584B02A
:1059B00000AF786039604FF00000C4F201004FF092
:1059C00000014FF00002FCF78FFD4FF00003FB6079
:1059D0003FE041F2F803C1F20003D3F8082141F29D
:1059E000F803C1F20003D3F804319A4207D141F21F
:1059F000F803C1F2000393F80031002B36D07A6827
:105A0000FB68D21841F2F803C1F20003D3F8081181
:105A100041F2F803C1F200035B5C1370FB6803F111
:105A20000103FB6041F2F803C1F20003D3F808312F
:105A300003F10103DAB241F2F803C1F20003C3F843
:105A4000082141F2F803C1F200034FF0000283F88D
:105A500000213B68002B0CBF00230123DBB23A6816
:105A600002F1FF323A60002BB3D100E000BF4FF0EB
:105A70000000C4F201004FF000014FF00102FCF7FA
:105A800033FDFB68184607F11007BD4680BD00BF17
:105A900080B582B000AF4FF00000C4F20100FCF707
:105AA00007FE03467B607B6803F00E03042B4ED198
:105AB00000E000BF07F103034FF00000C4F2010053
:105AC00019464FF001024FF00003FCF7A1FC03461A
:105AD000002B39D041F2F803C1F2000393F80031F2
